{
  "contractName": "BIAPreSale",
  "abi": [
    {
      "constant": true,
      "inputs": [],
      "name": "hasClosed",
      "outputs": [
        {
          "name": "",
          "type": "bool"
        }
      ],
      "payable": false,
      "stateMutability": "view",
      "type": "function"
    },
    {
      "constant": true,
      "inputs": [],
      "name": "rate",
      "outputs": [
        {
          "name": "",
          "type": "uint256"
        }
      ],
      "payable": false,
      "stateMutability": "view",
      "type": "function"
    },
    {
      "constant": true,
      "inputs": [],
      "name": "cap",
      "outputs": [
        {
          "name": "",
          "type": "uint256"
        }
      ],
      "payable": false,
      "stateMutability": "view",
      "type": "function"
    },
    {
      "constant": true,
      "inputs": [],
      "name": "weiRaised",
      "outputs": [
        {
          "name": "",
          "type": "uint256"
        }
      ],
      "payable": false,
      "stateMutability": "view",
      "type": "function"
    },
    {
      "constant": true,
      "inputs": [
        {
          "name": "",
          "type": "address"
        }
      ],
      "name": "contributions",
      "outputs": [
        {
          "name": "",
          "type": "uint256"
        }
      ],
      "payable": false,
      "stateMutability": "view",
      "type": "function"
    },
    {
      "constant": true,
      "inputs": [],
      "name": "isOpen",
      "outputs": [
        {
          "name": "",
          "type": "bool"
        }
      ],
      "payable": false,
      "stateMutability": "view",
      "type": "function"
    },
    {
      "constant": true,
      "inputs": [],
      "name": "closingTime",
      "outputs": [
        {
          "name": "",
          "type": "uint256"
        }
      ],
      "payable": false,
      "stateMutability": "view",
      "type": "function"
    },
    {
      "constant": true,
      "inputs": [],
      "name": "capReached",
      "outputs": [
        {
          "name": "",
          "type": "bool"
        }
      ],
      "payable": false,
      "stateMutability": "view",
      "type": "function"
    },
    {
      "constant": true,
      "inputs": [],
      "name": "wallet",
      "outputs": [
        {
          "name": "",
          "type": "address"
        }
      ],
      "payable": false,
      "stateMutability": "view",
      "type": "function"
    },
    {
      "constant": false,
      "inputs": [],
      "name": "renounceOwnership",
      "outputs": [],
      "payable": false,
      "stateMutability": "nonpayable",
      "type": "function"
    },
    {
      "constant": true,
      "inputs": [],
      "name": "owner",
      "outputs": [
        {
          "name": "",
          "type": "address"
        }
      ],
      "payable": false,
      "stateMutability": "view",
      "type": "function"
    },
    {
      "constant": true,
      "inputs": [],
      "name": "isOwner",
      "outputs": [
        {
          "name": "",
          "type": "bool"
        }
      ],
      "payable": false,
      "stateMutability": "view",
      "type": "function"
    },
    {
      "constant": true,
      "inputs": [],
      "name": "investorMinCap",
      "outputs": [
        {
          "name": "",
          "type": "uint256"
        }
      ],
      "payable": false,
      "stateMutability": "view",
      "type": "function"
    },
    {
      "constant": true,
      "inputs": [],
      "name": "openingTime",
      "outputs": [
        {
          "name": "",
          "type": "uint256"
        }
      ],
      "payable": false,
      "stateMutability": "view",
      "type": "function"
    },
    {
      "constant": false,
      "inputs": [
        {
          "name": "beneficiary",
          "type": "address"
        }
      ],
      "name": "buyTokens",
      "outputs": [],
      "payable": true,
      "stateMutability": "payable",
      "type": "function"
    },
    {
      "constant": true,
      "inputs": [],
      "name": "investorHardCap",
      "outputs": [
        {
          "name": "",
          "type": "uint256"
        }
      ],
      "payable": false,
      "stateMutability": "view",
      "type": "function"
    },
    {
      "constant": false,
      "inputs": [
        {
          "name": "newOwner",
          "type": "address"
        }
      ],
      "name": "transferOwnership",
      "outputs": [],
      "payable": false,
      "stateMutability": "nonpayable",
      "type": "function"
    },
    {
      "constant": true,
      "inputs": [],
      "name": "token",
      "outputs": [
        {
          "name": "",
          "type": "address"
        }
      ],
      "payable": false,
      "stateMutability": "view",
      "type": "function"
    },
    {
      "inputs": [
        {
          "name": "rate",
          "type": "uint256"
        },
        {
          "name": "_wallet",
          "type": "address"
        },
        {
          "name": "_token",
          "type": "address"
        },
        {
          "name": "_cap",
          "type": "uint256"
        },
        {
          "name": "_openingTime",
          "type": "uint256"
        },
        {
          "name": "_closingTime",
          "type": "uint256"
        },
        {
          "name": "_releaseTime1",
          "type": "uint256"
        },
        {
          "name": "_releaseTime2",
          "type": "uint256"
        },
        {
          "name": "_releaseTime3",
          "type": "uint256"
        }
      ],
      "payable": false,
      "stateMutability": "nonpayable",
      "type": "constructor"
    },
    {
      "payable": true,
      "stateMutability": "payable",
      "type": "fallback"
    },
    {
      "anonymous": false,
      "inputs": [
        {
          "indexed": false,
          "name": "From",
          "type": "address"
        },
        {
          "indexed": false,
          "name": "burnValue",
          "type": "uint256"
        }
      ],
      "name": "Burn",
      "type": "event"
    },
    {
      "anonymous": false,
      "inputs": [
        {
          "indexed": true,
          "name": "previousOwner",
          "type": "address"
        },
        {
          "indexed": true,
          "name": "newOwner",
          "type": "address"
        }
      ],
      "name": "OwnershipTransferred",
      "type": "event"
    },
    {
      "anonymous": false,
      "inputs": [
        {
          "indexed": false,
          "name": "prevClosingTime",
          "type": "uint256"
        },
        {
          "indexed": false,
          "name": "newClosingTime",
          "type": "uint256"
        }
      ],
      "name": "TimedCrowdsaleExtended",
      "type": "event"
    },
    {
      "anonymous": false,
      "inputs": [
        {
          "indexed": true,
          "name": "purchaser",
          "type": "address"
        },
        {
          "indexed": true,
          "name": "beneficiary",
          "type": "address"
        },
        {
          "indexed": false,
          "name": "value",
          "type": "uint256"
        },
        {
          "indexed": false,
          "name": "amount",
          "type": "uint256"
        }
      ],
      "name": "TokensPurchased",
      "type": "event"
    },
    {
      "constant": true,
      "inputs": [
        {
          "name": "index",
          "type": "uint256"
        }
      ],
      "name": "getBuyerDetails",
      "outputs": [
        {
          "name": "_beneficiaryAddress",
          "type": "address"
        },
        {
          "name": "_timeLockAddress1",
          "type": "address"
        },
        {
          "name": "_timeLockAddress2",
          "type": "address"
        },
        {
          "name": "_timeLockAddress3",
          "type": "address"
        }
      ],
      "payable": false,
      "stateMutability": "view",
      "type": "function"
    },
    {
      "constant": true,
      "inputs": [],
      "name": "totalBuyers",
      "outputs": [
        {
          "name": "count",
          "type": "uint256"
        }
      ],
      "payable": false,
      "stateMutability": "view",
      "type": "function"
    },
    {
      "constant": false,
      "inputs": [
        {
          "name": "_beneficiary",
          "type": "address"
        },
        {
          "name": "_amount",
          "type": "uint256"
        }
      ],
      "name": "newTokenTimeLock",
      "outputs": [],
      "payable": false,
      "stateMutability": "nonpayable",
      "type": "function"
    },
    {
      "constant": false,
      "inputs": [],
      "name": "burnUnsold",
      "outputs": [],
      "payable": false,
      "stateMutability": "nonpayable",
      "type": "function"
    }
  ],
  "bytecode": "0x608060405267016345785d8a0000600a556730927f74c9de0000600b553480156200002957600080fd5b50604051610120806200300083398101806040526101208110156200004d57600080fd5b810190808051906020019092919080519060200190929190805190602001909291908051906020019092919080519060200190929190805190602001909291908051906020019092919080519060200190929190805190602001909291905050508585858b8b8b60016000806101000a81548160ff02191690831515021790555060008311151562000147576040517f08c379a00000000000000000000000000000000000000000000000000000000081526004018080602001828103825260148152602001807f43726f776473616c653a2072617465206973203000000000000000000000000081525060200191505060405180910390fd5b600073ffffffffffffffffffffffffffffffffffffffff168273ffffffffffffffffffffffffffffffffffffffff1614151515620001d1576040517f08c379a000000000000000000000000000000000000000000000000000000000815260040180806020018281038252602581526020018062002fdb6025913960400191505060405180910390fd5b600073ffffffffffffffffffffffffffffffffffffffff168173ffffffffffffffffffffffffffffffffffffffff16141515156200025b576040517f08c379a000000000000000000000000000000000000000000000000000000000815260040180806020018281038252602481526020018062002fb76024913960400191505060405180910390fd5b8260028190555081600160006101000a81548173ffffffffffffffffffffffffffffffffffffffff021916908373ffffffffffffffffffffffffffffffffffffffff16021790555080600060016101000a81548173ffffffffffffffffffffffffffffffffffffffff021916908373ffffffffffffffffffffffffffffffffffffffff16021790555050505042821015151562000344576040517f08c379a000000000000000000000000000000000000000000000000000000000815260040180806020018281038252603381526020018062002f4d6033913960400191505060405180910390fd5b8181111515620003a0576040517f08c379a000000000000000000000000000000000000000000000000000000000815260040180806020018281038252603781526020018062002f806037913960400191505060405180910390fd5b8160048190555080600581905550505060008111151562000429576040517f08c379a00000000000000000000000000000000000000000000000000000000081526004018080602001828103825260198152602001807f43617070656443726f776473616c653a2063617020697320300000000000000081525060200191505060405180910390fd5b80600681905550506000620004436200055560201b60201c565b905080600760006101000a81548173ffffffffffffffffffffffffffffffffffffffff021916908373ffffffffffffffffffffffffffffffffffffffff1602179055508073ffffffffffffffffffffffffffffffffffffffff16600073ffffffffffffffffffffffffffffffffffffffff167f8be0079c531659141344cd1fd0a4f28419497f9722a3daafe3b4186f6b6457e060405160405180910390a35086600960006101000a81548173ffffffffffffffffffffffffffffffffffffffff021916908373ffffffffffffffffffffffffffffffffffffffff16021790555082600c8190555081600d8190555080600e8190555084600f81905550836010819055505050505050505050506200055d565b600033905090565b6129e0806200056d6000396000f3fe6080604052600436106101345760003560e01c8063715018a6116100ab578063b52a58511161006f578063b52a58511461059d578063b7a8807c146105b4578063ec8ac4d8146105df578063ed5db87414610623578063f2fde38b1461064e578063fc0c546a1461069f57610134565b8063715018a6146103c15780638da5cb5b146103d85780638f32d59b1461042f578063992245d31461045e578063b25d7f541461057257610134565b80634042b66f116100fd5780634042b66f1461025157806342e94c901461027c57806347535d7b146102e15780634b6753bc146103105780634f9359451461033b578063521eb2731461036a57610134565b80621ec835146101465780631515bc2b146101a15780632c4e722e146101d0578063355274ea146101fb5780633abd013614610226575b61014461013f6106f6565b6106fe565b005b34801561015257600080fd5b5061019f6004803603604081101561016957600080fd5b81019080803573ffffffffffffffffffffffffffffffffffffffff1690602001909291908035906020019092919050505061088b565b005b3480156101ad57600080fd5b506101b6610fcc565b604051808215151515815260200191505060405180910390f35b3480156101dc57600080fd5b506101e5610fd8565b6040518082815260200191505060405180910390f35b34801561020757600080fd5b50610210610fe2565b6040518082815260200191505060405180910390f35b34801561023257600080fd5b5061023b610fec565b6040518082815260200191505060405180910390f35b34801561025d57600080fd5b50610266610ff9565b6040518082815260200191505060405180910390f35b34801561028857600080fd5b506102cb6004803603602081101561029f57600080fd5b81019080803573ffffffffffffffffffffffffffffffffffffffff169060200190929190505050611003565b6040518082815260200191505060405180910390f35b3480156102ed57600080fd5b506102f661101b565b604051808215151515815260200191505060405180910390f35b34801561031c57600080fd5b50610325611036565b6040518082815260200191505060405180910390f35b34801561034757600080fd5b50610350611040565b604051808215151515815260200191505060405180910390f35b34801561037657600080fd5b5061037f611054565b604051808273ffffffffffffffffffffffffffffffffffffffff1673ffffffffffffffffffffffffffffffffffffffff16815260200191505060405180910390f35b3480156103cd57600080fd5b506103d661107e565b005b3480156103e457600080fd5b506103ed6111bb565b604051808273ffffffffffffffffffffffffffffffffffffffff1673ffffffffffffffffffffffffffffffffffffffff16815260200191505060405180910390f35b34801561043b57600080fd5b506104446111e5565b604051808215151515815260200191505060405180910390f35b34801561046a57600080fd5b506104976004803603602081101561048157600080fd5b8101908080359060200190929190505050611244565b604051808573ffffffffffffffffffffffffffffffffffffffff1673ffffffffffffffffffffffffffffffffffffffff1681526020018473ffffffffffffffffffffffffffffffffffffffff1673ffffffffffffffffffffffffffffffffffffffff1681526020018373ffffffffffffffffffffffffffffffffffffffff1673ffffffffffffffffffffffffffffffffffffffff1681526020018273ffffffffffffffffffffffffffffffffffffffff1673ffffffffffffffffffffffffffffffffffffffff16815260200194505050505060405180910390f35b34801561057e57600080fd5b5061058761135d565b6040518082815260200191505060405180910390f35b3480156105a957600080fd5b506105b2611363565b005b3480156105c057600080fd5b506105c9611615565b6040518082815260200191505060405180910390f35b610621600480360360208110156105f557600080fd5b81019080803573ffffffffffffffffffffffffffffffffffffffff1690602001909291905050506106fe565b005b34801561062f57600080fd5b5061063861161f565b6040518082815260200191505060405180910390f35b34801561065a57600080fd5b5061069d6004803603602081101561067157600080fd5b81019080803573ffffffffffffffffffffffffffffffffffffffff169060200190929190505050611625565b005b3480156106ab57600080fd5b506106b46116ad565b604051808273ffffffffffffffffffffffffffffffffffffffff1673ffffffffffffffffffffffffffffffffffffffff16815260200191505060405180910390f35b600033905090565b6000809054906101000a900460ff161515610781576040517f08c379a000000000000000000000000000000000000000000000000000000000815260040180806020018281038252601f8152602001807f5265656e7472616e637947756172643a207265656e7472616e742063616c6c0081525060200191505060405180910390fd5b60008060006101000a81548160ff02191690831515021790555060003490506107aa82826116d6565b60006107b5826117c3565b90506107cc826003546117e190919063ffffffff16565b6003819055506107dc838261186b565b8273ffffffffffffffffffffffffffffffffffffffff166107fb6106f6565b73ffffffffffffffffffffffffffffffffffffffff167f6faf93231a456e552dbc9961f58d9713ee4f2e69d15f1975b050ef0911053a7b8484604051808381526020018281526020019250505060405180910390a361085a8383611879565b61086261187d565b61086c83836118e8565b505060016000806101000a81548160ff02191690831515021790555050565b6000600960009054906101000a900473ffffffffffffffffffffffffffffffffffffffff1683600c546040516108c090611fb1565b808473ffffffffffffffffffffffffffffffffffffffff1673ffffffffffffffffffffffffffffffffffffffff1681526020018373ffffffffffffffffffffffffffffffffffffffff1673ffffffffffffffffffffffffffffffffffffffff1681526020018281526020019350505050604051809103906000f08015801561094c573d6000803e3d6000fd5b5090506000600960009054906101000a900473ffffffffffffffffffffffffffffffffffffffff1684600d5460405161098490611fb1565b808473ffffffffffffffffffffffffffffffffffffffff1673ffffffffffffffffffffffffffffffffffffffff1681526020018373ffffffffffffffffffffffffffffffffffffffff1673ffffffffffffffffffffffffffffffffffffffff1681526020018281526020019350505050604051809103906000f080158015610a10573d6000803e3d6000fd5b5090506000600960009054906101000a900473ffffffffffffffffffffffffffffffffffffffff1685600e54604051610a4890611fb1565b808473ffffffffffffffffffffffffffffffffffffffff1673ffffffffffffffffffffffffffffffffffffffff1681526020018373ffffffffffffffffffffffffffffffffffffffff1673ffffffffffffffffffffffffffffffffffffffff1681526020018281526020019350505050604051809103906000f080158015610ad4573d6000803e3d6000fd5b5090506000806000610af06004886118ec90919063ffffffff16565b9250610b196064610b0b601e8a61193690919063ffffffff16565b6118ec90919063ffffffff16565b9150610b40610b3183856117e190919063ffffffff16565b886119c090919063ffffffff16565b9050600960009054906101000a900473ffffffffffffffffffffffffffffffffffffffff1673ffffffffffffffffffffffffffffffffffffffff1663a9059cbb87856040518363ffffffff1660e01b8152600401808373ffffffffffffffffffffffffffffffffffffffff1673ffffffffffffffffffffffffffffffffffffffff16815260200182815260200192505050602060405180830381600087803b158015610beb57600080fd5b505af1158015610bff573d6000803e3d6000fd5b505050506040513d6020811015610c1557600080fd5b810190808051906020019092919050505050600960009054906101000a900473ffffffffffffffffffffffffffffffffffffffff1673ffffffffffffffffffffffffffffffffffffffff1663a9059cbb86846040518363ffffffff1660e01b8152600401808373ffffffffffffffffffffffffffffffffffffffff1673ffffffffffffffffffffffffffffffffffffffff16815260200182815260200192505050602060405180830381600087803b158015610cd057600080fd5b505af1158015610ce4573d6000803e3d6000fd5b505050506040513d6020811015610cfa57600080fd5b810190808051906020019092919050505050600960009054906101000a900473ffffffffffffffffffffffffffffffffffffffff1673ffffffffffffffffffffffffffffffffffffffff1663a9059cbb85836040518363ffffffff1660e01b8152600401808373ffffffffffffffffffffffffffffffffffffffff1673ffffffffffffffffffffffffffffffffffffffff16815260200182815260200192505050602060405180830381600087803b158015610db557600080fd5b505af1158015610dc9573d6000803e3d6000fd5b505050506040513d6020811015610ddf57600080fd5b810190808051906020019092919050505050610df9611fbe565b60405180608001604052808a73ffffffffffffffffffffffffffffffffffffffff1681526020018873ffffffffffffffffffffffffffffffffffffffff1681526020018773ffffffffffffffffffffffffffffffffffffffff1681526020018673ffffffffffffffffffffffffffffffffffffffff1681525090506011819080600181540180825580915050906001820390600052602060002090600402016000909192909190915060008201518160000160006101000a81548173ffffffffffffffffffffffffffffffffffffffff021916908373ffffffffffffffffffffffffffffffffffffffff16021790555060208201518160010160006101000a81548173ffffffffffffffffffffffffffffffffffffffff021916908373ffffffffffffffffffffffffffffffffffffffff16021790555060408201518160020160006101000a81548173ffffffffffffffffffffffffffffffffffffffff021916908373ffffffffffffffffffffffffffffffffffffffff16021790555060608201518160030160006101000a81548173ffffffffffffffffffffffffffffffffffffffff021916908373ffffffffffffffffffffffffffffffffffffffff160217905550505050505050505050505050565b60006005544211905090565b6000600254905090565b6000600654905090565b6000601180549050905090565b6000600354905090565b60086020528060005260406000206000915090505481565b6000600454421015801561103157506005544211155b905090565b6000600554905090565b600060065461104d610ff9565b1015905090565b6000600160009054906101000a900473ffffffffffffffffffffffffffffffffffffffff16905090565b6110866111e5565b15156110fa576040517f08c379a00000000000000000000000000000000000000000000000000000000081526004018080602001828103825260208152602001807f4f776e61626c653a2063616c6c6572206973206e6f7420746865206f776e657281525060200191505060405180910390fd5b600073ffffffffffffffffffffffffffffffffffffffff16600760009054906101000a900473ffffffffffffffffffffffffffffffffffffffff1673ffffffffffffffffffffffffffffffffffffffff167f8be0079c531659141344cd1fd0a4f28419497f9722a3daafe3b4186f6b6457e060405160405180910390a36000600760006101000a81548173ffffffffffffffffffffffffffffffffffffffff021916908373ffffffffffffffffffffffffffffffffffffffff160217905550565b6000600760009054906101000a900473ffffffffffffffffffffffffffffffffffffffff16905090565b6000600760009054906101000a900473ffffffffffffffffffffffffffffffffffffffff1673ffffffffffffffffffffffffffffffffffffffff166112286106f6565b73ffffffffffffffffffffffffffffffffffffffff1614905090565b60008060008060118581548110151561125957fe5b906000526020600020906004020160000160009054906101000a900473ffffffffffffffffffffffffffffffffffffffff1660118681548110151561129a57fe5b906000526020600020906004020160010160009054906101000a900473ffffffffffffffffffffffffffffffffffffffff166011878154811015156112db57fe5b906000526020600020906004020160020160009054906101000a900473ffffffffffffffffffffffffffffffffffffffff1660118881548110151561131c57fe5b906000526020600020906004020160030160009054906101000a900473ffffffffffffffffffffffffffffffffffffffff1693509350935093509193509193565b600a5481565b61136b6111e5565b15156113df576040517f08c379a00000000000000000000000000000000000000000000000000000000081526004018080602001828103825260208152602001807f4f776e61626c653a2063616c6c6572206973206e6f7420746865206f776e657281525060200191505060405180910390fd5b60105442111515611458576040517f08c379a00000000000000000000000000000000000000000000000000000000081526004018080602001828103825260198152602001807f43726f776473617465206973207374696c6c206163746976650000000000000081525060200191505060405180910390fd5b6000600960009054906101000a900473ffffffffffffffffffffffffffffffffffffffff16905060008173ffffffffffffffffffffffffffffffffffffffff166370a08231306040518263ffffffff1660e01b8152600401808273ffffffffffffffffffffffffffffffffffffffff1673ffffffffffffffffffffffffffffffffffffffff16815260200191505060206040518083038186803b1580156114fe57600080fd5b505afa158015611512573d6000803e3d6000fd5b505050506040513d602081101561152857600080fd5b810190808051906020019092919050505090508173ffffffffffffffffffffffffffffffffffffffff166342966c68826040518263ffffffff1660e01b815260040180828152602001915050600060405180830381600087803b15801561158e57600080fd5b505af11580156115a2573d6000803e3d6000fd5b505050507fcc16f5dbb4873280815c1ee09dbd06736cffcc184412cf7a71a0fdb75d397ca53382604051808373ffffffffffffffffffffffffffffffffffffffff1673ffffffffffffffffffffffffffffffffffffffff1681526020018281526020019250505060405180910390a15050565b6000600454905090565b600b5481565b61162d6111e5565b15156116a1576040517f08c379a00000000000000000000000000000000000000000000000000000000081526004018080602001828103825260208152602001807f4f776e61626c653a2063616c6c6572206973206e6f7420746865206f776e657281525060200191505060405180910390fd5b6116aa81611a0a565b50565b60008060019054906101000a900473ffffffffffffffffffffffffffffffffffffffff16905090565b6116e08282611b52565b600061173482600860008673ffffffffffffffffffffffffffffffffffffffff1673ffffffffffffffffffffffffffffffffffffffff168152602001908152602001600020546117e190919063ffffffff16565b9050600a54811015801561174a5750600b548111155b15156117be576040517f08c379a000000000000000000000000000000000000000000000000000000000815260040180806020018281038252601f8152602001807f496e766573746f722043415020696e206e6f7420696e20612072616e6765200081525060200191505060405180910390fd5b505050565b60006117da6002548361193690919063ffffffff16565b9050919050565b6000808284019050838110151515611861576040517f08c379a000000000000000000000000000000000000000000000000000000000815260040180806020018281038252601b8152602001807f536166654d6174683a206164646974696f6e206f766572666c6f77000000000081525060200191505060405180910390fd5b8091505092915050565b6118758282611bf3565b5050565b5050565b600160009054906101000a900473ffffffffffffffffffffffffffffffffffffffff1673ffffffffffffffffffffffffffffffffffffffff166108fc349081150290604051600060405180830381858888f193505050501580156118e5573d6000803e3d6000fd5b50565b5050565b600061192e83836040518060400160405280601a81526020017f536166654d6174683a206469766973696f6e206279207a65726f000000000000815250611c96565b905092915050565b60008083141561194957600090506119ba565b6000828402905082848281151561195c57fe5b041415156119b5576040517f08c379a000000000000000000000000000000000000000000000000000000000815260040180806020018281038252602181526020018061296a6021913960400191505060405180910390fd5b809150505b92915050565b6000611a0283836040518060400160405280601e81526020017f536166654d6174683a207375627472616374696f6e206f766572666c6f770000815250611d60565b905092915050565b600073ffffffffffffffffffffffffffffffffffffffff168173ffffffffffffffffffffffffffffffffffffffff1614151515611a92576040517f08c379a00000000000000000000000000000000000000000000000000000000081526004018080602001828103825260268152602001806129446026913960400191505060405180910390fd5b8073ffffffffffffffffffffffffffffffffffffffff16600760009054906101000a900473ffffffffffffffffffffffffffffffffffffffff1673ffffffffffffffffffffffffffffffffffffffff167f8be0079c531659141344cd1fd0a4f28419497f9722a3daafe3b4186f6b6457e060405160405180910390a380600760006101000a81548173ffffffffffffffffffffffffffffffffffffffff021916908373ffffffffffffffffffffffffffffffffffffffff16021790555050565b611b5c8282611e22565b600654611b7982611b6b610ff9565b6117e190919063ffffffff16565b11151515611bef576040517f08c379a000000000000000000000000000000000000000000000000000000000815260040180806020018281038252601d8152602001807f43617070656443726f776473616c653a2063617020657863656564656400000081525060200191505060405180910390fd5b5050565b611c4534600860008573ffffffffffffffffffffffffffffffffffffffff1673ffffffffffffffffffffffffffffffffffffffff168152602001908152602001600020546117e190919063ffffffff16565b600860008473ffffffffffffffffffffffffffffffffffffffff1673ffffffffffffffffffffffffffffffffffffffff16815260200190815260200160002081905550611c92828261088b565b5050565b600080831182901515611d44576040517f08c379a00000000000000000000000000000000000000000000000000000000081526004018080602001828103825283818151815260200191508051906020019080838360005b83811015611d09578082015181840152602081019050611cee565b50505050905090810190601f168015611d365780820380516001836020036101000a031916815260200191505b509250505060405180910390fd5b5060008385811515611d5257fe5b049050809150509392505050565b60008383111582901515611e0f576040517f08c379a00000000000000000000000000000000000000000000000000000000081526004018080602001828103825283818151815260200191508051906020019080838360005b83811015611dd4578082015181840152602081019050611db9565b50505050905090810190601f168015611e015780820380516001836020036101000a031916815260200191505b509250505060405180910390fd5b5060008385039050809150509392505050565b611e2a61101b565b1515611e9e576040517f08c379a00000000000000000000000000000000000000000000000000000000081526004018080602001828103825260188152602001807f54696d656443726f776473616c653a206e6f74206f70656e000000000000000081525060200191505060405180910390fd5b611ea88282611eac565b5050565b600073ffffffffffffffffffffffffffffffffffffffff168273ffffffffffffffffffffffffffffffffffffffff1614151515611f34576040517f08c379a000000000000000000000000000000000000000000000000000000000815260040180806020018281038252602a81526020018061298b602a913960400191505060405180910390fd5b60008114151515611fad576040517f08c379a00000000000000000000000000000000000000000000000000000000081526004018080602001828103825260198152602001807f43726f776473616c653a20776569416d6f756e7420697320300000000000000081525060200191505060405180910390fd5b5050565b6109058061203f83390190565b6040518060800160405280600073ffffffffffffffffffffffffffffffffffffffff168152602001600073ffffffffffffffffffffffffffffffffffffffff168152602001600073ffffffffffffffffffffffffffffffffffffffff168152602001600073ffffffffffffffffffffffffffffffffffffffff168152509056fe608060405234801561001057600080fd5b506040516060806109058339810180604052606081101561003057600080fd5b8101908080519060200190929190805190602001909291908051906020019092919050505042811115156100af576040517f08c379a00000000000000000000000000000000000000000000000000000000081526004018080602001828103825260328152602001806108d36032913960400191505060405180910390fd5b826000806101000a81548173ffffffffffffffffffffffffffffffffffffffff021916908373ffffffffffffffffffffffffffffffffffffffff16021790555081600160006101000a81548173ffffffffffffffffffffffffffffffffffffffff021916908373ffffffffffffffffffffffffffffffffffffffff1602179055508060028190555050505061078a806101496000396000f3fe608060405234801561001057600080fd5b506004361061004c5760003560e01c806338af3eed1461005157806386d1a69f1461009b578063b91d4001146100a5578063fc0c546a146100c3575b600080fd5b61005961010d565b604051808273ffffffffffffffffffffffffffffffffffffffff1673ffffffffffffffffffffffffffffffffffffffff16815260200191505060405180910390f35b6100a3610137565b005b6100ad61033d565b6040518082815260200191505060405180910390f35b6100cb610347565b604051808273ffffffffffffffffffffffffffffffffffffffff1673ffffffffffffffffffffffffffffffffffffffff16815260200191505060405180910390f35b6000600160009054906101000a900473ffffffffffffffffffffffffffffffffffffffff16905090565b6002544210151515610194576040517f08c379a00000000000000000000000000000000000000000000000000000000081526004018080602001828103825260328152602001806106e06032913960400191505060405180910390fd5b60008060009054906101000a900473ffffffffffffffffffffffffffffffffffffffff1673ffffffffffffffffffffffffffffffffffffffff166370a08231306040518263ffffffff1660e01b8152600401808273ffffffffffffffffffffffffffffffffffffffff1673ffffffffffffffffffffffffffffffffffffffff16815260200191505060206040518083038186803b15801561023457600080fd5b505afa158015610248573d6000803e3d6000fd5b505050506040513d602081101561025e57600080fd5b810190808051906020019092919050505090506000811115156102cc576040517f08c379a000000000000000000000000000000000000000000000000000000000815260040180806020018281038252602381526020018061073c6023913960400191505060405180910390fd5b61033a600160009054906101000a900473ffffffffffffffffffffffffffffffffffffffff16826000809054906101000a900473ffffffffffffffffffffffffffffffffffffffff1673ffffffffffffffffffffffffffffffffffffffff166103709092919063ffffffff16565b50565b6000600254905090565b60008060009054906101000a900473ffffffffffffffffffffffffffffffffffffffff16905090565b61043c838473ffffffffffffffffffffffffffffffffffffffff1663a9059cbb905060e01b8484604051602401808373ffffffffffffffffffffffffffffffffffffffff1673ffffffffffffffffffffffffffffffffffffffff16815260200182815260200192505050604051602081830303815290604052907bffffffffffffffffffffffffffffffffffffffffffffffffffffffff19166020820180517bffffffffffffffffffffffffffffffffffffffffffffffffffffffff8381831617835250505050610441565b505050565b6104608273ffffffffffffffffffffffffffffffffffffffff16610694565b15156104d4576040517f08c379a000000000000000000000000000000000000000000000000000000000815260040180806020018281038252601f8152602001807f5361666545524332303a2063616c6c20746f206e6f6e2d636f6e74726163740081525060200191505060405180910390fd5b600060608373ffffffffffffffffffffffffffffffffffffffff16836040518082805190602001908083835b6020831015156105255780518252602082019150602081019050602083039250610500565b6001836020036101000a0380198251168184511680821785525050505050509050019150506000604051808303816000865af19150503d8060008114610587576040519150601f19603f3d011682016040523d82523d6000602084013e61058c565b606091505b5091509150811515610606576040517f08c379a00000000000000000000000000000000000000000000000000000000081526004018080602001828103825260208152602001807f5361666545524332303a206c6f772d6c6576656c2063616c6c206661696c656481525060200191505060405180910390fd5b60008151111561068e5780806020019051602081101561062557600080fd5b8101908080519060200190929190505050151561068d576040517f08c379a000000000000000000000000000000000000000000000000000000000815260040180806020018281038252602a815260200180610712602a913960400191505060405180910390fd5b5b50505050565b60008060007fc5d2460186f7233c927e7db2dcc703c0e500b653ca82273b7bfad8045d85a47060001b9050833f91508082141580156106d657506000801b8214155b9250505091905056fe546f6b656e54696d656c6f636b3a2063757272656e742074696d65206973206265666f72652072656c656173652074696d655361666545524332303a204552433230206f7065726174696f6e20646964206e6f742073756363656564546f6b656e54696d656c6f636b3a206e6f20746f6b656e7320746f2072656c65617365a165627a7a723058204d02a874b0ae5ac29874797f940af5d019b251ec033ec0cef52cc6c5531e25b90029546f6b656e54696d656c6f636b3a2072656c656173652074696d65206973206265666f72652063757272656e742074696d654f776e61626c653a206e6577206f776e657220697320746865207a65726f2061646472657373536166654d6174683a206d756c7469706c69636174696f6e206f766572666c6f7743726f776473616c653a2062656e656669636961727920697320746865207a65726f2061646472657373a165627a7a72305820139c2dc93ba9ef6e1ee3548b6acf742f70dbcc1d18cfae4146a7f680d93ea076002954696d656443726f776473616c653a206f70656e696e672074696d65206973206265666f72652063757272656e742074696d6554696d656443726f776473616c653a206f70656e696e672074696d65206973206e6f74206265666f726520636c6f73696e672074696d6543726f776473616c653a20746f6b656e20697320746865207a65726f206164647265737343726f776473616c653a2077616c6c657420697320746865207a65726f2061646472657373",
  "source": "\r\n\r\npragma solidity ^0.5.0;\r\n\r\nimport \"@openzeppelin/contracts/token/ERC20/ERC20Detailed.sol\";\r\nimport \"@openzeppelin/contracts/token/ERC20/ERC20.sol\";\r\nimport \"@openzeppelin/contracts/token/ERC20/TokenTimelock.sol\";\r\nimport \"@openzeppelin/contracts/crowdsale/Crowdsale.sol\";\r\nimport \"@openzeppelin/contracts/crowdsale/validation/TimedCrowdsale.sol\";\r\nimport \"@openzeppelin/contracts/crowdsale/validation/CappedCrowdsale.sol\";\r\nimport \"@openzeppelin/contracts/ownership/Ownable.sol\";\r\nimport \"@openzeppelin/contracts/token/ERC20/ERC20Burnable.sol\";\r\n\r\ncontract BIAPreSale is TimedCrowdsale,CappedCrowdsale,Ownable\r\n {\r\n    mapping(address => uint256) public contributions;\r\n    ERC20Burnable tokenAddress;\r\n    uint public investorMinCap =   100000000000000000; // 0.1BNB\r\n    uint public investorHardCap = 3500000000000000000; // 3.5BNB\r\n    uint releaseTime1;\r\n    uint releaseTime2;\r\n    uint releaseTime3;\r\n    uint openTime;\r\n    uint closeTime;\r\n    struct buyerDetails\r\n    {\r\n      address beneficiaryAddress;\r\n      address timeLockAddress1;\r\n      address timeLockAddress2;\r\n      address timeLockAddress3;\r\n    }\r\n    buyerDetails[] buyer;\r\n\r\n  constructor\r\n  ( \r\n    uint rate,\r\n    address payable _wallet,\r\n    ERC20Burnable _token,\r\n    uint _cap,\r\n    uint _openingTime,\r\n    uint _closingTime,\r\n    uint _releaseTime1,\r\n    uint _releaseTime2,\r\n    uint _releaseTime3\r\n  )\r\n    Crowdsale(rate, _wallet, _token)\r\n    TimedCrowdsale(_openingTime, _closingTime)\r\n    CappedCrowdsale(_cap)\r\n        \r\n    public\r\n    {\r\n    tokenAddress    = _token;\r\n    releaseTime1    = _releaseTime1;\r\n    releaseTime2    = _releaseTime2;\r\n    releaseTime3    = _releaseTime3;\r\n    openTime        = _openingTime;\r\n    closeTime       = _closingTime;\r\n  }\r\n  \r\n  function getBuyerDetails(uint index) public view \r\n   returns\r\n   (\r\n    address _beneficiaryAddress,\r\n    address _timeLockAddress1,\r\n    address _timeLockAddress2,\r\n    address _timeLockAddress3\r\n   )\r\n  {\r\n  return\r\n    (\r\n      buyer[index].beneficiaryAddress,\r\n      buyer[index].timeLockAddress1,\r\n      buyer[index].timeLockAddress2,\r\n      buyer[index].timeLockAddress3\r\n    );\r\n  }\r\n  function totalBuyers( ) public view \r\n   returns(uint count)\r\n   {\r\n     return buyer.length;\r\n   }\r\n\r\n  function _preValidatePurchase\r\n  (\r\n    address _beneficiary,\r\n    uint256 _weiAmount\r\n  )\r\n  internal view \r\n  {  \r\n    \r\n    super._preValidatePurchase(_beneficiary, _weiAmount);\r\n    uint256 _newContribution = contributions[_beneficiary].add(_weiAmount);\r\n    require(_newContribution >= investorMinCap && _newContribution <= investorHardCap,\"Investor CAP in not in a range \"); \r\n       \r\n  }\r\n  function newTokenTimeLock\r\n  (\r\n    address _beneficiary,\r\n    uint _amount\r\n  )\r\n  public\r\n  {\r\n    // Create new wallet.\r\n    address wallet1 = address(new TokenTimelock(tokenAddress, _beneficiary,releaseTime1));\r\n    address wallet2 = address(new TokenTimelock(tokenAddress, _beneficiary,releaseTime2));\r\n    address wallet3 = address(new TokenTimelock(tokenAddress, _beneficiary,releaseTime3));\r\n      \r\n                \r\n    // Send ether from this transaction to the created contract.\r\n    uint256 tempAmount1;\r\n    uint256 tempAmount2;\r\n    uint256 tempAmount3;\r\n     \r\n    // Token splitting for three timelocked contracts\r\n    tempAmount1=_amount.div(4);\r\n    tempAmount2=_amount.mul(30).div(100);\r\n    tempAmount3=_amount.sub(tempAmount1.add(tempAmount2));\r\n     \r\n    // Token Tranfer to Timelocked Contracts\r\n    tokenAddress.transfer(wallet1,tempAmount1);\r\n    tokenAddress.transfer(wallet2,tempAmount2);\r\n    tokenAddress.transfer(wallet3,tempAmount3);\r\n      \r\n    //updating buyerdetails \r\n    buyerDetails memory newBuyer = buyerDetails\r\n    (\r\n      _beneficiary,\r\n      wallet1,\r\n      wallet2,\r\n      wallet3\r\n    );\r\n    buyer.push(newBuyer);\r\n            \r\n  }\r\n\r\n  function _deliverTokens\r\n  (\r\n   address _beneficiary, \r\n   uint256 _tokenAmount\r\n  )\r\n    internal\r\n  {\r\n    contributions[_beneficiary] = contributions[_beneficiary].add(msg.value);\r\n    newTokenTimeLock(_beneficiary,_tokenAmount);\r\n  }\r\n  function burnUnsold()\r\n    public onlyOwner\r\n  {\r\n    require((block.timestamp > closeTime), \"Crowdsate is still active\");\r\n    ERC20Burnable token = ERC20Burnable(tokenAddress);\r\n    uint256 amount = token.balanceOf(address(this));\r\n    token.burn(amount);\r\n    emit Burn(msg.sender, amount);\r\n  }\r\n  event Burn\r\n (\r\n   address From,\r\n   uint burnValue\r\n );\r\n}\r\n",
  "sourcePath": "/root/arun/Presale/BIAPreSale/contracts/BIAPreSale.sol",
  "compiler": {
    "name": "solc",
    "version": "0.5.5+commit.47a71e8f.Emscripten.clang"
  },
  "schemaVersion": "3.4.4",
  "updatedAt": "2022-01-27T13:51:38.743Z",
  "devdoc": {
    "methods": {
      "buyTokens(address)": {
        "details": "low level token purchase ***DO NOT OVERRIDE*** This function has a non-reentrancy guard, so it shouldn't be called by another `nonReentrant` function.",
        "params": {
          "beneficiary": "Recipient of the token purchase"
        }
      },
      "cap()": {
        "return": "the cap of the crowdsale."
      },
      "capReached()": {
        "details": "Checks whether the cap has been reached.",
        "return": "Whether the cap was reached"
      },
      "closingTime()": {
        "return": "the crowdsale closing time."
      },
      "hasClosed()": {
        "details": "Checks whether the period in which the crowdsale is open has already elapsed.",
        "return": "Whether crowdsale period has elapsed"
      },
      "isOpen()": {
        "return": "true if the crowdsale is open, false otherwise."
      },
      "isOwner()": {
        "details": "Returns true if the caller is the current owner."
      },
      "openingTime()": {
        "return": "the crowdsale opening time."
      },
      "owner()": {
        "details": "Returns the address of the current owner."
      },
      "rate()": {
        "return": "the number of token units a buyer gets per wei."
      },
      "renounceOwnership()": {
        "details": "Leaves the contract without owner. It will not be possible to call `onlyOwner` functions anymore. Can only be called by the current owner.     * NOTE: Renouncing ownership will leave the contract without an owner, thereby removing any functionality that is only available to the owner."
      },
      "token()": {
        "return": "the token being sold."
      },
      "transferOwnership(address)": {
        "details": "Transfers ownership of the contract to a new account (`newOwner`). Can only be called by the current owner."
      },
      "wallet()": {
        "return": "the address where funds are collected."
      },
      "weiRaised()": {
        "return": "the amount of wei raised."
      }
    }
  },
  "userdoc": {
    "methods": {}
  }
}